{
  "contractName": "CryptoState",
  "abi": [
    {
      "inputs": [],
      "stateMutability": "nonpayable",
      "type": "constructor"
    },
    {
      "anonymous": false,
      "inputs": [
        {
          "indexed": true,
          "internalType": "address",
          "name": "owner",
          "type": "address"
        },
        {
          "indexed": true,
          "internalType": "address",
          "name": "approved",
          "type": "address"
        },
        {
          "indexed": true,
          "internalType": "uint256",
          "name": "tokenId",
          "type": "uint256"
        }
      ],
      "name": "Approval",
      "type": "event"
    },
    {
      "anonymous": false,
      "inputs": [
        {
          "indexed": true,
          "internalType": "address",
          "name": "owner",
          "type": "address"
        },
        {
          "indexed": true,
          "internalType": "address",
          "name": "operator",
          "type": "address"
        },
        {
          "indexed": false,
          "internalType": "bool",
          "name": "approved",
          "type": "bool"
        }
      ],
      "name": "ApprovalForAll",
      "type": "event"
    },
    {
      "anonymous": false,
      "inputs": [
        {
          "indexed": false,
          "internalType": "uint256",
          "name": "tokenId",
          "type": "uint256"
        },
        {
          "indexed": false,
          "internalType": "string",
          "name": "tokenName",
          "type": "string"
        },
        {
          "indexed": false,
          "internalType": "string",
          "name": "tokenURI",
          "type": "string"
        },
        {
          "indexed": false,
          "internalType": "address payable",
          "name": "mintedBy",
          "type": "address"
        },
        {
          "indexed": false,
          "internalType": "address payable",
          "name": "currentowner",
          "type": "address"
        },
        {
          "indexed": false,
          "internalType": "address payable",
          "name": "oldowenr",
          "type": "address"
        },
        {
          "indexed": false,
          "internalType": "uint256",
          "name": "price",
          "type": "uint256"
        }
      ],
      "name": "CryptoStateItemCreate",
      "type": "event"
    },
    {
      "anonymous": false,
      "inputs": [
        {
          "indexed": true,
          "internalType": "address",
          "name": "previousOwner",
          "type": "address"
        },
        {
          "indexed": true,
          "internalType": "address",
          "name": "newOwner",
          "type": "address"
        }
      ],
      "name": "OwnershipTransferred",
      "type": "event"
    },
    {
      "anonymous": false,
      "inputs": [
        {
          "indexed": true,
          "internalType": "address",
          "name": "from",
          "type": "address"
        },
        {
          "indexed": true,
          "internalType": "address",
          "name": "to",
          "type": "address"
        },
        {
          "indexed": true,
          "internalType": "uint256",
          "name": "tokenId",
          "type": "uint256"
        }
      ],
      "name": "Transfer",
      "type": "event"
    },
    {
      "inputs": [
        {
          "internalType": "uint256",
          "name": "",
          "type": "uint256"
        }
      ],
      "name": "allCryptostate",
      "outputs": [
        {
          "internalType": "uint256",
          "name": "tokenId",
          "type": "uint256"
        },
        {
          "internalType": "string",
          "name": "tokenName",
          "type": "string"
        },
        {
          "internalType": "string",
          "name": "tokenURI",
          "type": "string"
        },
        {
          "internalType": "address payable",
          "name": "mintedBy",
          "type": "address"
        },
        {
          "internalType": "address payable",
          "name": "currentOwner",
          "type": "address"
        },
        {
          "internalType": "address payable",
          "name": "perviousOwner",
          "type": "address"
        },
        {
          "internalType": "uint256",
          "name": "price",
          "type": "uint256"
        },
        {
          "internalType": "bool",
          "name": "forSale",
          "type": "bool"
        },
        {
          "internalType": "string",
          "name": "placeAddress",
          "type": "string"
        }
      ],
      "stateMutability": "view",
      "type": "function",
      "constant": true
    },
    {
      "inputs": [
        {
          "internalType": "address",
          "name": "to",
          "type": "address"
        },
        {
          "internalType": "uint256",
          "name": "tokenId",
          "type": "uint256"
        }
      ],
      "name": "approve",
      "outputs": [],
      "stateMutability": "nonpayable",
      "type": "function"
    },
    {
      "inputs": [
        {
          "internalType": "address",
          "name": "owner",
          "type": "address"
        }
      ],
      "name": "balanceOf",
      "outputs": [
        {
          "internalType": "uint256",
          "name": "",
          "type": "uint256"
        }
      ],
      "stateMutability": "view",
      "type": "function",
      "constant": true
    },
    {
      "inputs": [],
      "name": "collectionName",
      "outputs": [
        {
          "internalType": "string",
          "name": "",
          "type": "string"
        }
      ],
      "stateMutability": "view",
      "type": "function",
      "constant": true
    },
    {
      "inputs": [],
      "name": "collectionNameSymbol",
      "outputs": [
        {
          "internalType": "string",
          "name": "",
          "type": "string"
        }
      ],
      "stateMutability": "view",
      "type": "function",
      "constant": true
    },
    {
      "inputs": [
        {
          "internalType": "uint256",
          "name": "tokenId",
          "type": "uint256"
        }
      ],
      "name": "getApproved",
      "outputs": [
        {
          "internalType": "address",
          "name": "",
          "type": "address"
        }
      ],
      "stateMutability": "view",
      "type": "function",
      "constant": true
    },
    {
      "inputs": [
        {
          "internalType": "address",
          "name": "owner",
          "type": "address"
        },
        {
          "internalType": "address",
          "name": "operator",
          "type": "address"
        }
      ],
      "name": "isApprovedForAll",
      "outputs": [
        {
          "internalType": "bool",
          "name": "",
          "type": "bool"
        }
      ],
      "stateMutability": "view",
      "type": "function",
      "constant": true
    },
    {
      "inputs": [],
      "name": "name",
      "outputs": [
        {
          "internalType": "string",
          "name": "",
          "type": "string"
        }
      ],
      "stateMutability": "view",
      "type": "function",
      "constant": true
    },
    {
      "inputs": [],
      "name": "nameOf",
      "outputs": [
        {
          "internalType": "string",
          "name": "",
          "type": "string"
        }
      ],
      "stateMutability": "view",
      "type": "function",
      "constant": true
    },
    {
      "inputs": [],
      "name": "owner",
      "outputs": [
        {
          "internalType": "address",
          "name": "",
          "type": "address"
        }
      ],
      "stateMutability": "view",
      "type": "function",
      "constant": true
    },
    {
      "inputs": [
        {
          "internalType": "uint256",
          "name": "tokenId",
          "type": "uint256"
        }
      ],
      "name": "ownerOf",
      "outputs": [
        {
          "internalType": "address",
          "name": "",
          "type": "address"
        }
      ],
      "stateMutability": "view",
      "type": "function",
      "constant": true
    },
    {
      "inputs": [],
      "name": "renounceOwnership",
      "outputs": [],
      "stateMutability": "nonpayable",
      "type": "function"
    },
    {
      "inputs": [
        {
          "internalType": "address",
          "name": "from",
          "type": "address"
        },
        {
          "internalType": "address",
          "name": "to",
          "type": "address"
        },
        {
          "internalType": "uint256",
          "name": "tokenId",
          "type": "uint256"
        }
      ],
      "name": "safeTransferFrom",
      "outputs": [],
      "stateMutability": "nonpayable",
      "type": "function"
    },
    {
      "inputs": [
        {
          "internalType": "address",
          "name": "from",
          "type": "address"
        },
        {
          "internalType": "address",
          "name": "to",
          "type": "address"
        },
        {
          "internalType": "uint256",
          "name": "tokenId",
          "type": "uint256"
        },
        {
          "internalType": "bytes",
          "name": "_data",
          "type": "bytes"
        }
      ],
      "name": "safeTransferFrom",
      "outputs": [],
      "stateMutability": "nonpayable",
      "type": "function"
    },
    {
      "inputs": [
        {
          "internalType": "address",
          "name": "operator",
          "type": "address"
        },
        {
          "internalType": "bool",
          "name": "approved",
          "type": "bool"
        }
      ],
      "name": "setApprovalForAll",
      "outputs": [],
      "stateMutability": "nonpayable",
      "type": "function"
    },
    {
      "inputs": [
        {
          "internalType": "bytes4",
          "name": "interfaceId",
          "type": "bytes4"
        }
      ],
      "name": "supportsInterface",
      "outputs": [
        {
          "internalType": "bool",
          "name": "",
          "type": "bool"
        }
      ],
      "stateMutability": "view",
      "type": "function",
      "constant": true
    },
    {
      "inputs": [],
      "name": "symbol",
      "outputs": [
        {
          "internalType": "string",
          "name": "",
          "type": "string"
        }
      ],
      "stateMutability": "view",
      "type": "function",
      "constant": true
    },
    {
      "inputs": [
        {
          "internalType": "uint256",
          "name": "tokenId",
          "type": "uint256"
        }
      ],
      "name": "tokenURI",
      "outputs": [
        {
          "internalType": "string",
          "name": "",
          "type": "string"
        }
      ],
      "stateMutability": "view",
      "type": "function",
      "constant": true
    },
    {
      "inputs": [
        {
          "internalType": "address",
          "name": "from",
          "type": "address"
        },
        {
          "internalType": "address",
          "name": "to",
          "type": "address"
        },
        {
          "internalType": "uint256",
          "name": "tokenId",
          "type": "uint256"
        }
      ],
      "name": "transferFrom",
      "outputs": [],
      "stateMutability": "nonpayable",
      "type": "function"
    },
    {
      "inputs": [
        {
          "internalType": "address",
          "name": "newOwner",
          "type": "address"
        }
      ],
      "name": "transferOwnership",
      "outputs": [],
      "stateMutability": "nonpayable",
      "type": "function"
    },
    {
      "inputs": [],
      "name": "withdraw",
      "outputs": [],
      "stateMutability": "payable",
      "type": "function",
      "payable": true
    },
    {
      "inputs": [
        {
          "internalType": "string",
          "name": "_name",
          "type": "string"
        },
        {
          "internalType": "string",
          "name": "_tokenURI",
          "type": "string"
        },
        {
          "internalType": "uint256",
          "name": "_price",
          "type": "uint256"
        },
        {
          "internalType": "string",
          "name": "_placeAddress",
          "type": "string"
        },
        {
          "internalType": "address",
          "name": "_owner",
          "type": "address"
        },
        {
          "internalType": "bool",
          "name": "_forSell",
          "type": "bool"
        }
      ],
      "name": "mintCryptoState",
      "outputs": [],
      "stateMutability": "payable",
      "type": "function",
      "payable": true
    },
    {
      "inputs": [],
      "name": "getListingPrice",
      "outputs": [
        {
          "internalType": "uint256",
          "name": "",
          "type": "uint256"
        }
      ],
      "stateMutability": "view",
      "type": "function",
      "constant": true
    },
    {
      "inputs": [
        {
          "internalType": "uint256",
          "name": "_tokenId",
          "type": "uint256"
        }
      ],
      "name": "getTokenOwner",
      "outputs": [
        {
          "internalType": "address",
          "name": "",
          "type": "address"
        }
      ],
      "stateMutability": "view",
      "type": "function",
      "constant": true
    },
    {
      "inputs": [
        {
          "internalType": "uint256",
          "name": "_tokenId",
          "type": "uint256"
        }
      ],
      "name": "getTokenMetadata",
      "outputs": [
        {
          "internalType": "string",
          "name": "",
          "type": "string"
        }
      ],
      "stateMutability": "view",
      "type": "function",
      "constant": true
    },
    {
      "inputs": [],
      "name": "getNumberOfTokensMinted",
      "outputs": [
        {
          "internalType": "uint256",
          "name": "",
          "type": "uint256"
        }
      ],
      "stateMutability": "view",
      "type": "function",
      "constant": true
    },
    {
      "inputs": [
        {
          "internalType": "address",
          "name": "_owner",
          "type": "address"
        }
      ],
      "name": "TokenownedByaddress",
      "outputs": [
        {
          "internalType": "uint256",
          "name": "",
          "type": "uint256"
        }
      ],
      "stateMutability": "view",
      "type": "function",
      "constant": true
    },
    {
      "inputs": [
        {
          "internalType": "uint256",
          "name": "_tokenId",
          "type": "uint256"
        }
      ],
      "name": "getTokenExists",
      "outputs": [
        {
          "internalType": "bool",
          "name": "",
          "type": "bool"
        }
      ],
      "stateMutability": "view",
      "type": "function",
      "constant": true
    },
    {
      "inputs": [
        {
          "internalType": "uint256",
          "name": "_tokenId",
          "type": "uint256"
        }
      ],
      "name": "buyToken",
      "outputs": [],
      "stateMutability": "payable",
      "type": "function",
      "payable": true
    },
    {
      "inputs": [
        {
          "internalType": "uint256",
          "name": "_tokenId",
          "type": "uint256"
        },
        {
          "internalType": "uint256",
          "name": "_newPrice",
          "type": "uint256"
        }
      ],
      "name": "changeTokenPrice",
      "outputs": [],
      "stateMutability": "payable",
      "type": "function",
      "payable": true
    },
    {
      "inputs": [
        {
          "internalType": "uint256",
          "name": "_tokenId",
          "type": "uint256"
        }
      ],
      "name": "toggleForSale",
      "outputs": [],
      "stateMutability": "payable",
      "type": "function",
      "payable": true
    }
  ],
  "bytecode": "0x608060405260405180606001604052806023815260200162004dfd60239139600890805190602001906200003592919062000370565b5067016345785d8a0000600c553480156200004f57600080fd5b506040518060400160405280600b81526020017f43727970746f53746174650000000000000000000000000000000000000000008152506040518060400160405280600381526020017f494e4400000000000000000000000000000000000000000000000000000000008152508160009080519060200190620000d492919062000370565b508060019080519060200190620000ed92919062000370565b50505062000110620001046200016e60201b60201c565b6200017660201b60201c565b6001600781905550620001286200023c60201b60201c565b600990805190602001906200013f92919062000370565b5062000150620002d660201b60201c565b600a90805190602001906200016792919062000370565b5062000485565b600033905090565b6000600660009054906101000a900473ffffffffffffffffffffffffffffffffffffffff16905081600660006101000a81548173ffffffffffffffffffffffffffffffffffffffff021916908373ffffffffffffffffffffffffffffffffffffffff1602179055508173ffffffffffffffffffffffffffffffffffffffff168173ffffffffffffffffffffffffffffffffffffffff167f8be0079c531659141344cd1fd0a4f28419497f9722a3daafe3b4186f6b6457e060405160405180910390a35050565b6060600080546200024d9062000420565b80601f01602080910402602001604051908101604052809291908181526020018280546200027b9062000420565b8015620002cc5780601f10620002a057610100808354040283529160200191620002cc565b820191906000526020600020905b815481529060010190602001808311620002ae57829003601f168201915b5050505050905090565b606060018054620002e79062000420565b80601f0160208091040260200160405190810160405280929190818152602001828054620003159062000420565b8015620003665780601f106200033a5761010080835404028352916020019162000366565b820191906000526020600020905b8154815290600101906020018083116200034857829003601f168201915b5050505050905090565b8280546200037e9062000420565b90600052602060002090601f016020900481019282620003a25760008555620003ee565b82601f10620003bd57805160ff1916838001178555620003ee565b82800160010185558215620003ee579182015b82811115620003ed578251825591602001919060010190620003d0565b5b509050620003fd919062000401565b5090565b5b808211156200041c57600081600090555060010162000402565b5090565b600060028204905060018216806200043957607f821691505b6020821081141562000450576200044f62000456565b5b50919050565b7f4e487b7100000000000000000000000000000000000000000000000000000000600052602260045260246000fd5b61496880620004956000396000f3fe6080604052600436106101d85760003560e01c8063715018a611610102578063b8ec91d311610095578063e5326ab111610064578063e5326ab1146106b6578063e985e9c5146106e1578063ed5de8e81461071e578063f2fde38b1461073a576101d8565b8063b8ec91d3146105de578063c87b56dd14610609578063cc151f3a14610646578063d07dee8414610671576101d8565b8063a22cb465116100d1578063a22cb46514610533578063a32018b91461055c578063a5cd761f14610578578063b88d4fde146105b5576101d8565b8063715018a614610489578063810ff2fe146104a05780638da5cb5b146104dd57806395d89b4114610508576101d8565b80632d296bf11161017a57806362e8e8ac1161014957806362e8e8ac146103c85780636352211e146103e45780636f9507f91461042157806370a082311461044c576101d8565b80632d296bf11461033c5780633ccfd60b1461035857806342842e0e14610362578063603168011461038b576101d8565b8063095ea7b3116101b6578063095ea7b31461028257806312e85585146102ab578063142687f3146102d657806323b872dd14610313576101d8565b806301ffc9a7146101dd57806306fdde031461021a578063081812fc14610245575b600080fd5b3480156101e957600080fd5b5061020460048036038101906101ff91906135d2565b610763565b60405161021191906140af565b60405180910390f35b34801561022657600080fd5b5061022f610845565b60405161023c91906140ca565b60405180910390f35b34801561025157600080fd5b5061026c600480360381019061026791906136f5565b6108d7565b6040516102799190614048565b60405180910390f35b34801561028e57600080fd5b506102a960048036038101906102a49190613596565b61095c565b005b3480156102b757600080fd5b506102c0610a74565b6040516102cd91906143cc565b60405180910390f35b3480156102e257600080fd5b506102fd60048036038101906102f891906136f5565b610a7e565b60405161030a91906140af565b60405180910390f35b34801561031f57600080fd5b5061033a60048036038101906103359190613490565b610a95565b005b610356600480360381019061035191906136f5565b610af5565b005b6103606111d5565b005b34801561036e57600080fd5b5061038960048036038101906103849190613490565b6112a7565b005b34801561039757600080fd5b506103b260048036038101906103ad91906136f5565b6112c7565b6040516103bf91906140ca565b60405180910390f35b6103e260048036038101906103dd919061371e565b6112df565b005b3480156103f057600080fd5b5061040b600480360381019061040691906136f5565b611393565b6040516104189190614048565b60405180910390f35b34801561042d57600080fd5b50610436611445565b60405161044391906140ca565b60405180910390f35b34801561045857600080fd5b50610473600480360381019061046e919061342b565b6114d3565b60405161048091906143cc565b60405180910390f35b34801561049557600080fd5b5061049e61158b565b005b3480156104ac57600080fd5b506104c760048036038101906104c2919061342b565b611613565b6040516104d491906143cc565b60405180910390f35b3480156104e957600080fd5b506104f261162a565b6040516104ff9190614048565b60405180910390f35b34801561051457600080fd5b5061051d611654565b60405161052a91906140ca565b60405180910390f35b34801561053f57600080fd5b5061055a6004803603810190610555919061355a565b6116e6565b005b610576600480360381019061057191906136f5565b6116fc565b005b34801561058457600080fd5b5061059f600480360381019061059a91906136f5565b6119ed565b6040516105ac9190614048565b60405180910390f35b3480156105c157600080fd5b506105dc60048036038101906105d791906134df565b611a04565b005b3480156105ea57600080fd5b506105f3611a66565b60405161060091906140ca565b60405180910390f35b34801561061557600080fd5b50610630600480360381019061062b91906136f5565b611af4565b60405161063d91906140ca565b60405180910390f35b34801561065257600080fd5b5061065b611b9b565b60405161066891906143cc565b60405180910390f35b34801561067d57600080fd5b50610698600480360381019061069391906136f5565b611bb1565b6040516106ad99989796959493929190614464565b60405180910390f35b3480156106c257600080fd5b506106cb611e04565b6040516106d891906140ca565b60405180910390f35b3480156106ed57600080fd5b5061070860048036038101906107039190613454565b611e92565b60405161071591906140af565b60405180910390f35b61073860048036038101906107339190613624565b611f26565b005b34801561074657600080fd5b50610761600480360381019061075c919061342b565b612405565b005b60007f80ac58cd000000000000000000000000000000000000000000000000000000007bffffffffffffffffffffffffffffffffffffffffffffffffffffffff1916827bffffffffffffffffffffffffffffffffffffffffffffffffffffffff1916148061082e57507f5b5e139f000000000000000000000000000000000000000000000000000000007bffffffffffffffffffffffffffffffffffffffffffffffffffffffff1916827bffffffffffffffffffffffffffffffffffffffffffffffffffffffff1916145b8061083e575061083d826124fd565b5b9050919050565b6060600080546108549061475d565b80601f01602080910402602001604051908101604052809291908181526020018280546108809061475d565b80156108cd5780601f106108a2576101008083540402835291602001916108cd565b820191906000526020600020905b8154815290600101906020018083116108b057829003601f168201915b5050505050905090565b60006108e282612567565b610921576040517f08c379a00000000000000000000000000000000000000000000000000000000081526004016109189061426c565b60405180910390fd5b6004600083815260200190815260200160002060009054906101000a900473ffffffffffffffffffffffffffffffffffffffff169050919050565b600061096782611393565b90508073ffffffffffffffffffffffffffffffffffffffff168373ffffffffffffffffffffffffffffffffffffffff1614156109d8576040517f08c379a00000000000000000000000000000000000000000000000000000000081526004016109cf906142ec565b60405180910390fd5b8073ffffffffffffffffffffffffffffffffffffffff166109f76125d3565b73ffffffffffffffffffffffffffffffffffffffff161480610a265750610a2581610a206125d3565b611e92565b5b610a65576040517f08c379a0000000000000000000000000000000000000000000000000000000008152600401610a5c906141cc565b60405180910390fd5b610a6f83836125db565b505050565b6000600c54905090565b600080610a8a83612567565b905080915050919050565b610aa6610aa06125d3565b82612694565b610ae5576040517f08c379a0000000000000000000000000000000000000000000000000000000008152600401610adc9061434c565b60405180910390fd5b610af0838383612772565b505050565b600073ffffffffffffffffffffffffffffffffffffffff163373ffffffffffffffffffffffffffffffffffffffff161415610b65576040517f08c379a0000000000000000000000000000000000000000000000000000000008152600401610b5c9061424c565b60405180910390fd5b610b6e81612567565b610bad576040517f08c379a0000000000000000000000000000000000000000000000000000000008152600401610ba4906143ac565b60405180910390fd5b6000610bb882611393565b90508073ffffffffffffffffffffffffffffffffffffffff163373ffffffffffffffffffffffffffffffffffffffff161415610c29576040517f08c379a0000000000000000000000000000000000000000000000000000000008152600401610c20906140ec565b60405180910390fd5b6000600d60008481526020019081526020016000206040518061012001604052908160008201548152602001600182018054610c649061475d565b80601f0160208091040260200160405190810160405280929190818152602001828054610c909061475d565b8015610cdd5780601f10610cb257610100808354040283529160200191610cdd565b820191906000526020600020905b815481529060010190602001808311610cc057829003601f168201915b50505050508152602001600282018054610cf69061475d565b80601f0160208091040260200160405190810160405280929190818152602001828054610d229061475d565b8015610d6f5780601f10610d4457610100808354040283529160200191610d6f565b820191906000526020600020905b815481529060010190602001808311610d5257829003601f168201915b505050505081526020016003820160009054906101000a900473ffffffffffffffffffffffffffffffffffffffff1673ffffffffffffffffffffffffffffffffffffffff1673ffffffffffffffffffffffffffffffffffffffff1681526020016004820160009054906101000a900473ffffffffffffffffffffffffffffffffffffffff1673ffffffffffffffffffffffffffffffffffffffff1673ffffffffffffffffffffffffffffffffffffffff1681526020016005820160009054906101000a900473ffffffffffffffffffffffffffffffffffffffff1673ffffffffffffffffffffffffffffffffffffffff1673ffffffffffffffffffffffffffffffffffffffff168152602001600682015481526020016007820160009054906101000a900460ff16151515158152602001600882018054610eaf9061475d565b80601f0160208091040260200160405190810160405280929190818152602001828054610edb9061475d565b8015610f285780601f10610efd57610100808354040283529160200191610f28565b820191906000526020600020905b815481529060010190602001808311610f0b57829003601f168201915b50505050508152505090508060c00151341015610f7a576040517f08c379a0000000000000000000000000000000000000000000000000000000008152600401610f719061430c565b60405180910390fd5b8060e00151610f8857600080fd5b610f93823385612772565b6000816080015190508073ffffffffffffffffffffffffffffffffffffffff166108fc349081150290604051600060405180830381858888f19350505050158015610fe2573d6000803e3d6000fd5b5081608001518260a0019073ffffffffffffffffffffffffffffffffffffffff16908173ffffffffffffffffffffffffffffffffffffffff168152505033826080019073ffffffffffffffffffffffffffffffffffffffff16908173ffffffffffffffffffffffffffffffffffffffff168152505081600d60008681526020019081526020016000206000820151816000015560208201518160010190805190602001906110919291906131c2565b5060408201518160020190805190602001906110ae9291906131c2565b5060608201518160030160006101000a81548173ffffffffffffffffffffffffffffffffffffffff021916908373ffffffffffffffffffffffffffffffffffffffff16021790555060808201518160040160006101000a81548173ffffffffffffffffffffffffffffffffffffffff021916908373ffffffffffffffffffffffffffffffffffffffff16021790555060a08201518160050160006101000a81548173ffffffffffffffffffffffffffffffffffffffff021916908373ffffffffffffffffffffffffffffffffffffffff16021790555060c0820151816006015560e08201518160070160006101000a81548160ff0219169083151502179055506101008201518160080190805190602001906111cb9291906131c2565b5090505050505050565b6111dd6125d3565b73ffffffffffffffffffffffffffffffffffffffff166111fb61162a565b73ffffffffffffffffffffffffffffffffffffffff1614611251576040517f08c379a00000000000000000000000000000000000000000000000000000000081526004016112489061428c565b60405180910390fd5b600061125b61162a565b90508073ffffffffffffffffffffffffffffffffffffffff166108fc479081150290604051600060405180830381858888f193505050501580156112a3573d6000803e3d6000fd5b5050565b6112c283838360405180602001604052806000815250611a04565b505050565b606060006112d483611af4565b905080915050919050565b600073ffffffffffffffffffffffffffffffffffffffff163373ffffffffffffffffffffffffffffffffffffffff16141561131957600080fd5b600c5434101561132857600080fd5b600061133383611393565b90503373ffffffffffffffffffffffffffffffffffffffff168173ffffffffffffffffffffffffffffffffffffffff161461136d57600080fd5b6000600d6000858152602001908152602001600020905082816006018190555050505050565b6000806002600084815260200190815260200160002060009054906101000a900473ffffffffffffffffffffffffffffffffffffffff169050600073ffffffffffffffffffffffffffffffffffffffff168173ffffffffffffffffffffffffffffffffffffffff16141561143c576040517f08c379a00000000000000000000000000000000000000000000000000000000081526004016114339061420c565b60405180910390fd5b80915050919050565b600a80546114529061475d565b80601f016020809104026020016040519081016040528092919081815260200182805461147e9061475d565b80156114cb5780601f106114a0576101008083540402835291602001916114cb565b820191906000526020600020905b8154815290600101906020018083116114ae57829003601f168201915b505050505081565b60008073ffffffffffffffffffffffffffffffffffffffff168273ffffffffffffffffffffffffffffffffffffffff161415611544576040517f08c379a000000000000000000000000000000000000000000000000000000000815260040161153b906141ec565b60405180910390fd5b600360008373ffffffffffffffffffffffffffffffffffffffff1673ffffffffffffffffffffffffffffffffffffffff168152602001908152602001600020549050919050565b6115936125d3565b73ffffffffffffffffffffffffffffffffffffffff166115b161162a565b73ffffffffffffffffffffffffffffffffffffffff1614611607576040517f08c379a00000000000000000000000000000000000000000000000000000000081526004016115fe9061428c565b60405180910390fd5b61161160006129ce565b565b60008061161f836114d3565b905080915050919050565b6000600660009054906101000a900473ffffffffffffffffffffffffffffffffffffffff16905090565b6060600180546116639061475d565b80601f016020809104026020016040519081016040528092919081815260200182805461168f9061475d565b80156116dc5780601f106116b1576101008083540402835291602001916116dc565b820191906000526020600020905b8154815290600101906020018083116116bf57829003601f168201915b5050505050905090565b6116f86116f16125d3565b8383612a94565b5050565b600073ffffffffffffffffffffffffffffffffffffffff163373ffffffffffffffffffffffffffffffffffffffff16141561173657600080fd5b61173f81612567565b61174857600080fd5b600061175382611393565b90503373ffffffffffffffffffffffffffffffffffffffff168173ffffffffffffffffffffffffffffffffffffffff161461178d57600080fd5b6000600d600084815260200190815260200160002090508060070160009054906101000a900460ff16156117dd5760008160070160006101000a81548160ff0219169083151502179055506117fb565b60018160070160006101000a81548160ff0219169083151502179055505b80600d600085815260200190815260200160002060008201548160000155600182018160010190805461182d9061475d565b611838929190613248565b50600282018160020190805461184d9061475d565b611858929190613248565b506003820160009054906101000a900473ffffffffffffffffffffffffffffffffffffffff168160030160006101000a81548173ffffffffffffffffffffffffffffffffffffffff021916908373ffffffffffffffffffffffffffffffffffffffff1602179055506004820160009054906101000a900473ffffffffffffffffffffffffffffffffffffffff168160040160006101000a81548173ffffffffffffffffffffffffffffffffffffffff021916908373ffffffffffffffffffffffffffffffffffffffff1602179055506005820160009054906101000a900473ffffffffffffffffffffffffffffffffffffffff168160050160006101000a81548173ffffffffffffffffffffffffffffffffffffffff021916908373ffffffffffffffffffffffffffffffffffffffff160217905550600682015481600601556007820160009054906101000a900460ff168160070160006101000a81548160ff02191690831515021790555060088201816008019080546119d99061475d565b6119e4929190613248565b50905050505050565b6000806119f983611393565b905080915050919050565b611a15611a0f6125d3565b83612694565b611a54576040517f08c379a0000000000000000000000000000000000000000000000000000000008152600401611a4b9061434c565b60405180910390fd5b611a6084848484612c01565b50505050565b60088054611a739061475d565b80601f0160208091040260200160405190810160405280929190818152602001828054611a9f9061475d565b8015611aec5780601f10611ac157610100808354040283529160200191611aec565b820191906000526020600020905b815481529060010190602001808311611acf57829003601f168201915b505050505081565b6060611aff82612567565b611b3e576040517f08c379a0000000000000000000000000000000000000000000000000000000008152600401611b35906142cc565b60405180910390fd5b6000611b48612c5d565b90506000815111611b685760405180602001604052806000815250611b93565b80611b7284612c74565b604051602001611b83929190614024565b6040516020818303038152906040525b915050919050565b600080611ba8600b612e21565b90508091505090565b600d602052806000526040600020600091509050806000015490806001018054611bda9061475d565b80601f0160208091040260200160405190810160405280929190818152602001828054611c069061475d565b8015611c535780601f10611c2857610100808354040283529160200191611c53565b820191906000526020600020905b815481529060010190602001808311611c3657829003601f168201915b505050505090806002018054611c689061475d565b80601f0160208091040260200160405190810160405280929190818152602001828054611c949061475d565b8015611ce15780601f10611cb657610100808354040283529160200191611ce1565b820191906000526020600020905b815481529060010190602001808311611cc457829003601f168201915b5050505050908060030160009054906101000a900473ffffffffffffffffffffffffffffffffffffffff16908060040160009054906101000a900473ffffffffffffffffffffffffffffffffffffffff16908060050160009054906101000a900473ffffffffffffffffffffffffffffffffffffffff16908060060154908060070160009054906101000a900460ff1690806008018054611d819061475d565b80601f0160208091040260200160405190810160405280929190818152602001828054611dad9061475d565b8015611dfa5780601f10611dcf57610100808354040283529160200191611dfa565b820191906000526020600020905b815481529060010190602001808311611ddd57829003601f168201915b5050505050905089565b60098054611e119061475d565b80601f0160208091040260200160405190810160405280929190818152602001828054611e3d9061475d565b8015611e8a5780601f10611e5f57610100808354040283529160200191611e8a565b820191906000526020600020905b815481529060010190602001808311611e6d57829003601f168201915b505050505081565b6000600560008473ffffffffffffffffffffffffffffffffffffffff1673ffffffffffffffffffffffffffffffffffffffff16815260200190815260200160002060008373ffffffffffffffffffffffffffffffffffffffff1673ffffffffffffffffffffffffffffffffffffffff16815260200190815260200160002060009054906101000a900460ff16905092915050565b611f2e6125d3565b73ffffffffffffffffffffffffffffffffffffffff16611f4c61162a565b73ffffffffffffffffffffffffffffffffffffffff1614611fa2576040517f08c379a0000000000000000000000000000000000000000000000000000000008152600401611f999061428c565b60405180910390fd5b60026007541415611fe8576040517f08c379a0000000000000000000000000000000000000000000000000000000008152600401611fdf9061436c565b60405180910390fd5b6002600781905550600073ffffffffffffffffffffffffffffffffffffffff163373ffffffffffffffffffffffffffffffffffffffff16141561202a57600080fd5b6000841161206d576040517f08c379a00000000000000000000000000000000000000000000000000000000081526004016120649061438c565b60405180910390fd5b600c543410156120b2576040517f08c379a00000000000000000000000000000000000000000000000000000000081526004016120a99061432c565b60405180910390fd5b600f856040516120c2919061400d565b908152602001604051809103902060009054906101000a900460ff16156120e857600080fd5b600e866040516120f8919061400d565b908152602001604051809103902060009054906101000a900460ff161561211e57600080fd5b612128600b612e2f565b6000612134600b612e21565b90506121408382612e45565b6001600f87604051612152919061400d565b908152602001604051809103902060006101000a81548160ff0219169083151502179055506001600e88604051612189919061400d565b908152602001604051809103902060006101000a81548160ff02191690831515021790555060006040518061012001604052808381526020018981526020018881526020013373ffffffffffffffffffffffffffffffffffffffff1681526020018573ffffffffffffffffffffffffffffffffffffffff168152602001600073ffffffffffffffffffffffffffffffffffffffff168152602001878152602001841515815260200186815250905080600d60008481526020019081526020016000206000820151816000015560208201518160010190805190602001906122719291906131c2565b50604082015181600201908051906020019061228e9291906131c2565b5060608201518160030160006101000a81548173ffffffffffffffffffffffffffffffffffffffff021916908373ffffffffffffffffffffffffffffffffffffffff16021790555060808201518160040160006101000a81548173ffffffffffffffffffffffffffffffffffffffff021916908373ffffffffffffffffffffffffffffffffffffffff16021790555060a08201518160050160006101000a81548173ffffffffffffffffffffffffffffffffffffffff021916908373ffffffffffffffffffffffffffffffffffffffff16021790555060c0820151816006015560e08201518160070160006101000a81548160ff0219169083151502179055506101008201518160080190805190602001906123ab9291906131c2565b509050507f7594c44e892ba87814e8387de4cba2d744162afad20ea01e24c7ca2581ad3a0a828989338860008c6040516123eb97969594939291906143e7565b60405180910390a150506001600781905550505050505050565b61240d6125d3565b73ffffffffffffffffffffffffffffffffffffffff1661242b61162a565b73ffffffffffffffffffffffffffffffffffffffff1614612481576040517f08c379a00000000000000000000000000000000000000000000000000000000081526004016124789061428c565b60405180910390fd5b600073ffffffffffffffffffffffffffffffffffffffff168173ffffffffffffffffffffffffffffffffffffffff1614156124f1576040517f08c379a00000000000000000000000000000000000000000000000000000000081526004016124e89061412c565b60405180910390fd5b6124fa816129ce565b50565b60007f01ffc9a7000000000000000000000000000000000000000000000000000000007bffffffffffffffffffffffffffffffffffffffffffffffffffffffff1916827bffffffffffffffffffffffffffffffffffffffffffffffffffffffff1916149050919050565b60008073ffffffffffffffffffffffffffffffffffffffff166002600084815260200190815260200160002060009054906101000a900473ffffffffffffffffffffffffffffffffffffffff1673ffffffffffffffffffffffffffffffffffffffff1614159050919050565b600033905090565b816004600083815260200190815260200160002060006101000a81548173ffffffffffffffffffffffffffffffffffffffff021916908373ffffffffffffffffffffffffffffffffffffffff160217905550808273ffffffffffffffffffffffffffffffffffffffff1661264e83611393565b73ffffffffffffffffffffffffffffffffffffffff167f8c5be1e5ebec7d5bd14f71427d1e84f3dd0314c0f7b2291e5b200ac8c7c3b92560405160405180910390a45050565b600061269f82612567565b6126de576040517f08c379a00000000000000000000000000000000000000000000000000000000081526004016126d5906141ac565b60405180910390fd5b60006126e983611393565b90508073ffffffffffffffffffffffffffffffffffffffff168473ffffffffffffffffffffffffffffffffffffffff16148061275857508373ffffffffffffffffffffffffffffffffffffffff16612740846108d7565b73ffffffffffffffffffffffffffffffffffffffff16145b8061276957506127688185611e92565b5b91505092915050565b8273ffffffffffffffffffffffffffffffffffffffff1661279282611393565b73ffffffffffffffffffffffffffffffffffffffff16146127e8576040517f08c379a00000000000000000000000000000000000000000000000000000000081526004016127df906142ac565b60405180910390fd5b600073ffffffffffffffffffffffffffffffffffffffff168273ffffffffffffffffffffffffffffffffffffffff161415612858576040517f08c379a000000000000000000000000000000000000000000000000000000000815260040161284f9061416c565b60405180910390fd5b612863838383613013565b61286e6000826125db565b6001600360008573ffffffffffffffffffffffffffffffffffffffff1673ffffffffffffffffffffffffffffffffffffffff16815260200190815260200160002060008282546128be9190614661565b925050819055506001600360008473ffffffffffffffffffffffffffffffffffffffff1673ffffffffffffffffffffffffffffffffffffffff168152602001908152602001600020600082825461291591906145da565b92505081905550816002600083815260200190815260200160002060006101000a81548173ffffffffffffffffffffffffffffffffffffffff021916908373ffffffffffffffffffffffffffffffffffffffff160217905550808273ffffffffffffffffffffffffffffffffffffffff168473ffffffffffffffffffffffffffffffffffffffff167fddf252ad1be2c89b69c2b068fc378daa952ba7f163c4a11628f55a4df523b3ef60405160405180910390a4505050565b6000600660009054906101000a900473ffffffffffffffffffffffffffffffffffffffff16905081600660006101000a81548173ffffffffffffffffffffffffffffffffffffffff021916908373ffffffffffffffffffffffffffffffffffffffff1602179055508173ffffffffffffffffffffffffffffffffffffffff168173ffffffffffffffffffffffffffffffffffffffff167f8be0079c531659141344cd1fd0a4f28419497f9722a3daafe3b4186f6b6457e060405160405180910390a35050565b8173ffffffffffffffffffffffffffffffffffffffff168373ffffffffffffffffffffffffffffffffffffffff161415612b03576040517f08c379a0000000000000000000000000000000000000000000000000000000008152600401612afa9061418c565b60405180910390fd5b80600560008573ffffffffffffffffffffffffffffffffffffffff1673ffffffffffffffffffffffffffffffffffffffff16815260200190815260200160002060008473ffffffffffffffffffffffffffffffffffffffff1673ffffffffffffffffffffffffffffffffffffffff16815260200190815260200160002060006101000a81548160ff0219169083151502179055508173ffffffffffffffffffffffffffffffffffffffff168373ffffffffffffffffffffffffffffffffffffffff167f17307eab39ab6107e8899845ad3d59bd9653f200f220920489ca2b5937696c3183604051612bf491906140af565b60405180910390a3505050565b612c0c848484612772565b612c1884848484613018565b612c57576040517f08c379a0000000000000000000000000000000000000000000000000000000008152600401612c4e9061410c565b60405180910390fd5b50505050565b606060405180602001604052806000815250905090565b60606000821415612cbc576040518060400160405280600181526020017f30000000000000000000000000000000000000000000000000000000000000008152509050612e1c565b600082905060005b60008214612cee578080612cd79061478f565b915050600a82612ce79190614630565b9150612cc4565b60008167ffffffffffffffff811115612d30577f4e487b7100000000000000000000000000000000000000000000000000000000600052604160045260246000fd5b6040519080825280601f01601f191660200182016040528015612d625781602001600182028036833780820191505090505b5090505b60008514612e1557600182612d7b9190614661565b9150600a85612d8a91906147d8565b6030612d9691906145da565b60f81b818381518110612dd2577f4e487b7100000000000000000000000000000000000000000000000000000000600052603260045260246000fd5b60200101907effffffffffffffffffffffffffffffffffffffffffffffffffffffffffffff1916908160001a905350600a85612e0e9190614630565b9450612d66565b8093505050505b919050565b600081600001549050919050565b6001816000016000828254019250508190555050565b600073ffffffffffffffffffffffffffffffffffffffff168273ffffffffffffffffffffffffffffffffffffffff161415612eb5576040517f08c379a0000000000000000000000000000000000000000000000000000000008152600401612eac9061422c565b60405180910390fd5b612ebe81612567565b15612efe576040517f08c379a0000000000000000000000000000000000000000000000000000000008152600401612ef59061414c565b60405180910390fd5b612f0a60008383613013565b6001600360008473ffffffffffffffffffffffffffffffffffffffff1673ffffffffffffffffffffffffffffffffffffffff1681526020019081526020016000206000828254612f5a91906145da565b92505081905550816002600083815260200190815260200160002060006101000a81548173ffffffffffffffffffffffffffffffffffffffff021916908373ffffffffffffffffffffffffffffffffffffffff160217905550808273ffffffffffffffffffffffffffffffffffffffff16600073ffffffffffffffffffffffffffffffffffffffff167fddf252ad1be2c89b69c2b068fc378daa952ba7f163c4a11628f55a4df523b3ef60405160405180910390a45050565b505050565b60006130398473ffffffffffffffffffffffffffffffffffffffff166131af565b156131a2578373ffffffffffffffffffffffffffffffffffffffff1663150b7a026130626125d3565b8786866040518563ffffffff1660e01b81526004016130849493929190614063565b602060405180830381600087803b15801561309e57600080fd5b505af19250505080156130cf57506040513d601f19601f820116820180604052508101906130cc91906135fb565b60015b613152573d80600081146130ff576040519150601f19603f3d011682016040523d82523d6000602084013e613104565b606091505b5060008151141561314a576040517f08c379a00000000000000000000000000000000000000000000000000000000081526004016131419061410c565b60405180910390fd5b805181602001fd5b63150b7a0260e01b7bffffffffffffffffffffffffffffffffffffffffffffffffffffffff1916817bffffffffffffffffffffffffffffffffffffffffffffffffffffffff1916149150506131a7565b600190505b949350505050565b600080823b905060008111915050919050565b8280546131ce9061475d565b90600052602060002090601f0160209004810192826131f05760008555613237565b82601f1061320957805160ff1916838001178555613237565b82800160010185558215613237579182015b8281111561323657825182559160200191906001019061321b565b5b50905061324491906132d5565b5090565b8280546132549061475d565b90600052602060002090601f01602090048101928261327657600085556132c4565b82601f1061328757805485556132c4565b828001600101855582156132c457600052602060002091601f016020900482015b828111156132c35782548255916001019190600101906132a8565b5b5090506132d191906132d5565b5090565b5b808211156132ee5760008160009055506001016132d6565b5090565b600061330561330084614537565b614506565b90508281526020810184848401111561331d57600080fd5b61332884828561471b565b509392505050565b600061334361333e84614567565b614506565b90508281526020810184848401111561335b57600080fd5b61336684828561471b565b509392505050565b60008135905061337d816148d6565b92915050565b600081359050613392816148ed565b92915050565b6000813590506133a781614904565b92915050565b6000815190506133bc81614904565b92915050565b600082601f8301126133d357600080fd5b81356133e38482602086016132f2565b91505092915050565b600082601f8301126133fd57600080fd5b813561340d848260208601613330565b91505092915050565b6000813590506134258161491b565b92915050565b60006020828403121561343d57600080fd5b600061344b8482850161336e565b91505092915050565b6000806040838503121561346757600080fd5b60006134758582860161336e565b92505060206134868582860161336e565b9150509250929050565b6000806000606084860312156134a557600080fd5b60006134b38682870161336e565b93505060206134c48682870161336e565b92505060406134d586828701613416565b9150509250925092565b600080600080608085870312156134f557600080fd5b60006135038782880161336e565b94505060206135148782880161336e565b935050604061352587828801613416565b925050606085013567ffffffffffffffff81111561354257600080fd5b61354e878288016133c2565b91505092959194509250565b6000806040838503121561356d57600080fd5b600061357b8582860161336e565b925050602061358c85828601613383565b9150509250929050565b600080604083850312156135a957600080fd5b60006135b78582860161336e565b92505060206135c885828601613416565b9150509250929050565b6000602082840312156135e457600080fd5b60006135f284828501613398565b91505092915050565b60006020828403121561360d57600080fd5b600061361b848285016133ad565b91505092915050565b60008060008060008060c0878903121561363d57600080fd5b600087013567ffffffffffffffff81111561365757600080fd5b61366389828a016133ec565b965050602087013567ffffffffffffffff81111561368057600080fd5b61368c89828a016133ec565b955050604061369d89828a01613416565b945050606087013567ffffffffffffffff8111156136ba57600080fd5b6136c689828a016133ec565b93505060806136d789828a0161336e565b92505060a06136e889828a01613383565b9150509295509295509295565b60006020828403121561370757600080fd5b600061371584828501613416565b91505092915050565b6000806040838503121561373157600080fd5b600061373f85828601613416565b925050602061375085828601613416565b9150509250929050565b613763816146a7565b82525050565b61377281614695565b82525050565b613781816146b9565b82525050565b600061379282614597565b61379c81856145ad565b93506137ac81856020860161472a565b6137b5816148c5565b840191505092915050565b60006137cb826145a2565b6137d581856145be565b93506137e581856020860161472a565b6137ee816148c5565b840191505092915050565b6000613804826145a2565b61380e81856145cf565b935061381e81856020860161472a565b80840191505092915050565b6000613837601e836145be565b91507f796f752063616e206e6f742062757920796f7572206f776e20746f6b656e00006000830152602082019050919050565b60006138776032836145be565b91507f4552433732313a207472616e7366657220746f206e6f6e20455243373231526560008301527f63656976657220696d706c656d656e74657200000000000000000000000000006020830152604082019050919050565b60006138dd6026836145be565b91507f4f776e61626c653a206e6577206f776e657220697320746865207a65726f206160008301527f64647265737300000000000000000000000000000000000000000000000000006020830152604082019050919050565b6000613943601c836145be565b91507f4552433732313a20746f6b656e20616c7265616479206d696e746564000000006000830152602082019050919050565b60006139836024836145be565b91507f4552433732313a207472616e7366657220746f20746865207a65726f2061646460008301527f72657373000000000000000000000000000000000000000000000000000000006020830152604082019050919050565b60006139e96019836145be565b91507f4552433732313a20617070726f766520746f2063616c6c6572000000000000006000830152602082019050919050565b6000613a29602c836145be565b91507f4552433732313a206f70657261746f7220717565727920666f72206e6f6e657860008301527f697374656e7420746f6b656e00000000000000000000000000000000000000006020830152604082019050919050565b6000613a8f6038836145be565b91507f4552433732313a20617070726f76652063616c6c6572206973206e6f74206f7760008301527f6e6572206e6f7220617070726f76656420666f7220616c6c00000000000000006020830152604082019050919050565b6000613af5602a836145be565b91507f4552433732313a2062616c616e636520717565727920666f7220746865207a6560008301527f726f2061646472657373000000000000000000000000000000000000000000006020830152604082019050919050565b6000613b5b6029836145be565b91507f4552433732313a206f776e657220717565727920666f72206e6f6e657869737460008301527f656e7420746f6b656e00000000000000000000000000000000000000000000006020830152604082019050919050565b6000613bc16020836145be565b91507f4552433732313a206d696e7420746f20746865207a65726f20616464726573736000830152602082019050919050565b6000613c016018836145be565b91507f61646472657373206d757374206e6f74206265206e756c6c00000000000000006000830152602082019050919050565b6000613c41602c836145be565b91507f4552433732313a20617070726f76656420717565727920666f72206e6f6e657860008301527f697374656e7420746f6b656e00000000000000000000000000000000000000006020830152604082019050919050565b6000613ca76020836145be565b91507f4f776e61626c653a2063616c6c6572206973206e6f7420746865206f776e65726000830152602082019050919050565b6000613ce76029836145be565b91507f4552433732313a207472616e73666572206f6620746f6b656e2074686174206960008301527f73206e6f74206f776e00000000000000000000000000000000000000000000006020830152604082019050919050565b6000613d4d602f836145be565b91507f4552433732314d657461646174613a2055524920717565727920666f72206e6f60008301527f6e6578697374656e7420746f6b656e00000000000000000000000000000000006020830152604082019050919050565b6000613db36021836145be565b91507f4552433732313a20617070726f76616c20746f2063757272656e74206f776e6560008301527f72000000000000000000000000000000000000000000000000000000000000006020830152604082019050919050565b6000613e19601e836145be565b91507f706c6561736520456e7465722066756c6c20707269636520746f2062757900006000830152602082019050919050565b6000613e596024836145be565b91507f5072696365206d75737420626520657175616c20746f206c697374696e67207060008301527f72696365000000000000000000000000000000000000000000000000000000006020830152604082019050919050565b6000613ebf6031836145be565b91507f4552433732313a207472616e736665722063616c6c6572206973206e6f74206f60008301527f776e6572206e6f7220617070726f7665640000000000000000000000000000006020830152604082019050919050565b6000613f25601f836145be565b91507f5265656e7472616e637947756172643a207265656e7472616e742063616c6c006000830152602082019050919050565b6000613f65601c836145be565b91507f5072696365206d757374206265206174206c65617374203120776569000000006000830152602082019050919050565b6000613fa56023836145be565b91507f746f6b656e206d757374206265206578697473206f6e2074686520636f6e747260008301527f61637400000000000000000000000000000000000000000000000000000000006020830152604082019050919050565b61400781614711565b82525050565b600061401982846137f9565b915081905092915050565b600061403082856137f9565b915061403c82846137f9565b91508190509392505050565b600060208201905061405d6000830184613769565b92915050565b60006080820190506140786000830187613769565b6140856020830186613769565b6140926040830185613ffe565b81810360608301526140a48184613787565b905095945050505050565b60006020820190506140c46000830184613778565b92915050565b600060208201905081810360008301526140e481846137c0565b905092915050565b600060208201905081810360008301526141058161382a565b9050919050565b600060208201905081810360008301526141258161386a565b9050919050565b60006020820190508181036000830152614145816138d0565b9050919050565b6000602082019050818103600083015261416581613936565b9050919050565b6000602082019050818103600083015261418581613976565b9050919050565b600060208201905081810360008301526141a5816139dc565b9050919050565b600060208201905081810360008301526141c581613a1c565b9050919050565b600060208201905081810360008301526141e581613a82565b9050919050565b6000602082019050818103600083015261420581613ae8565b9050919050565b6000602082019050818103600083015261422581613b4e565b9050919050565b6000602082019050818103600083015261424581613bb4565b9050919050565b6000602082019050818103600083015261426581613bf4565b9050919050565b6000602082019050818103600083015261428581613c34565b9050919050565b600060208201905081810360008301526142a581613c9a565b9050919050565b600060208201905081810360008301526142c581613cda565b9050919050565b600060208201905081810360008301526142e581613d40565b9050919050565b6000602082019050818103600083015261430581613da6565b9050919050565b6000602082019050818103600083015261432581613e0c565b9050919050565b6000602082019050818103600083015261434581613e4c565b9050919050565b6000602082019050818103600083015261436581613eb2565b9050919050565b6000602082019050818103600083015261438581613f18565b9050919050565b600060208201905081810360008301526143a581613f58565b9050919050565b600060208201905081810360008301526143c581613f98565b9050919050565b60006020820190506143e16000830184613ffe565b92915050565b600060e0820190506143fc600083018a613ffe565b818103602083015261440e81896137c0565b9050818103604083015261442281886137c0565b9050614431606083018761375a565b61443e608083018661375a565b61444b60a083018561375a565b61445860c0830184613ffe565b98975050505050505050565b60006101208201905061447a600083018c613ffe565b818103602083015261448c818b6137c0565b905081810360408301526144a0818a6137c0565b90506144af606083018961375a565b6144bc608083018861375a565b6144c960a083018761375a565b6144d660c0830186613ffe565b6144e360e0830185613778565b8181036101008301526144f681846137c0565b90509a9950505050505050505050565b6000604051905081810181811067ffffffffffffffff8211171561452d5761452c614896565b5b8060405250919050565b600067ffffffffffffffff82111561455257614551614896565b5b601f19601f8301169050602081019050919050565b600067ffffffffffffffff82111561458257614581614896565b5b601f19601f8301169050602081019050919050565b600081519050919050565b600081519050919050565b600082825260208201905092915050565b600082825260208201905092915050565b600081905092915050565b60006145e582614711565b91506145f083614711565b9250827fffffffffffffffffffffffffffffffffffffffffffffffffffffffffffffffff0382111561462557614624614809565b5b828201905092915050565b600061463b82614711565b915061464683614711565b92508261465657614655614838565b5b828204905092915050565b600061466c82614711565b915061467783614711565b92508282101561468a57614689614809565b5b828203905092915050565b60006146a0826146f1565b9050919050565b60006146b2826146f1565b9050919050565b60008115159050919050565b60007fffffffff0000000000000000000000000000000000000000000000000000000082169050919050565b600073ffffffffffffffffffffffffffffffffffffffff82169050919050565b6000819050919050565b82818337600083830152505050565b60005b8381101561474857808201518184015260208101905061472d565b83811115614757576000848401525b50505050565b6000600282049050600182168061477557607f821691505b6020821081141561478957614788614867565b5b50919050565b600061479a82614711565b91507fffffffffffffffffffffffffffffffffffffffffffffffffffffffffffffffff8214156147cd576147cc614809565b5b600182019050919050565b60006147e382614711565b91506147ee83614711565b9250826147fe576147fd614838565b5b828206905092915050565b7f4e487b7100000000000000000000000000000000000000000000000000000000600052601160045260246000fd5b7f4e487b7100000000000000000000000000000000000000000000000000000000600052601260045260246000fd5b7f4e487b7100000000000000000000000000000000000000000000000000000000600052602260045260246000fd5b7f4e487b7100000000000000000000000000000000000000000000000000000000600052604160045260246000fd5b6000601f19601f8301169050919050565b6148df81614695565b81146148ea57600080fd5b50565b6148f6816146b9565b811461490157600080fd5b50565b61490d816146c5565b811461491857600080fd5b50565b61492481614711565b811461492f57600080fd5b5056fea2646970667358221220b3629f8cf3f5a4dc0cba9f141421c3f6e43c9d28bf3e787e038aa83ec7d150f364736f6c63430008000033476f7674206f6620496e646961202043727970746f73746174652020506f726174616c",
  "immutableReferences": {},
  "source": "// SPDX-License-Identifier: MIT\npragma solidity ^0.8.0;\nimport \"@openzeppelin/contracts/utils/Counters.sol\";\nimport \"@openzeppelin/contracts/security/ReentrancyGuard.sol\";\nimport \"@openzeppelin/contracts/token/ERC721/ERC721.sol\";\nimport \"@openzeppelin/contracts/access/Ownable.sol\";\n\ncontract CryptoState is ERC721, Ownable, ReentrancyGuard {\n    using Counters for Counters.Counter;\n\n    string public nameOf = \"Govt of India  Cryptostate  Poratal\";\n\n    // this is contract's token collection name\n    string public collectionName;\n    // this is the contract's token symbol\n    string public collectionNameSymbol;\n\n    // total number of collection that to be created\n    Counters.Counter private cryptoStateCouter;\n    //listing price\n    uint256 listingPrice = 0.1 ether;\n\n    struct CryptoState {\n        uint256 tokenId;\n        string tokenName;\n        string tokenURI;\n        address payable mintedBy;\n        address payable currentOwner;\n        address payable perviousOwner;\n        uint256 price;\n        bool forSale;\n        string placeAddress;\n    }\n    event CryptoStateItemCreate(\n        uint256 tokenId,\n        string tokenName,\n        string tokenURI,\n        address payable mintedBy,\n        address payable currentowner,\n        address payable oldowenr,\n        uint256 price\n    );\n    // map cryptoStata's token id to cryptostate\n    mapping(uint256 => CryptoState) public allCryptostate;\n    // token validation\n    mapping(string => bool) private tokenNameExists;\n    //check if the token URI exists\n    mapping(string => bool) private tokenURIExists;\n\n    constructor() ERC721(\"CryptoState\", \"IND\") {\n        collectionName = name();\n        collectionNameSymbol = symbol();\n    }\n// this function is used to transfer ether to govt account\n function withdraw() public payable onlyOwner {\n        address payable _owner = payable(owner());\n        _owner.transfer(address(this).balance);\n    }\n    // create new cryptostate\n    // Creation\n\n    function mintCryptoState(\n        string memory _name,\n        string memory _tokenURI,\n        uint256 _price,\n        string memory _placeAddress,\n        address _owner,\n        bool _forSell\n    ) public payable onlyOwner nonReentrant {\n        // address should to be valide\n        require(msg.sender != address(0));\n        // price must be grater then 0\n        require(_price > 0, \"Price must be at least 1 wei\");\n        // listing price should to be equal\n        require(\n            msg.value >= listingPrice,\n            \"Price must be equal to listing price\"\n        );\n\n        //token URI must be uniqe\n        require(!tokenURIExists[_tokenURI]);\n        // token name must be uniqe\n        require(!tokenNameExists[_name]);\n        // increament the counter of cryptostate\n        cryptoStateCouter.increment();\n        //getting the current count\n        uint256 tokenId = cryptoStateCouter.current();\n        // mint the token\n        _mint(_owner, tokenId);\n        // set token URI (bind token id with the passed in token URI)\n        // _setTokenURI(tokenId, _tokenURI);\n        tokenURIExists[_tokenURI] = true;\n        tokenNameExists[_name] = true;\n        // creat a new crypto state (struct) and pass in new values\n        CryptoState memory newCryptoState = CryptoState(\n            tokenId,\n            _name,\n            _tokenURI,\n            payable(msg.sender),\n            payable(_owner),\n            payable(address(0)),\n            _price,\n            _forSell,\n            _placeAddress\n        );\n        // adding to the allCrypto state array\n        allCryptostate[tokenId] = newCryptoState;\n        // emit event\n        emit CryptoStateItemCreate(\n            tokenId,\n            _name,\n            _tokenURI,\n            payable(msg.sender),\n            payable(_owner),\n            payable(address(0)),\n            _price\n        );\n    }\n\n    //getting the pricing list\n    function getListingPrice() public view returns (uint256) {\n        return listingPrice;\n    }\n\n    // get owner of the token\n    function getTokenOwner(uint256 _tokenId) public view returns (address) {\n        address _tokenOwer = ownerOf(_tokenId);\n        return _tokenOwer;\n    }\n\n    // to feel after sometime\n    function getTokenMetadata(uint256 _tokenId)\n        public\n        view\n        returns (string memory)\n    {\n    string memory tokenMetaData = tokenURI(_tokenId);\n    return tokenMetaData;\n    }\n\n    // get the number of token that created till the function is called\n    function getNumberOfTokensMinted() public view returns (uint256) {\n        uint256 totalNumberofTokensMinted = cryptoStateCouter.current();\n        return totalNumberofTokensMinted;\n    }\n\n    // get the number of the token owned by the  caller of the function\n    function TokenownedByaddress(address _owner) public view returns (uint256) {\n        uint256 totalNumberofTokensowned = balanceOf(_owner);\n        return totalNumberofTokensowned;\n    }\n\n    // returns if some token is exits or not\n    function getTokenExists(uint256 _tokenId) public view returns (bool) {\n        bool tokenExists = _exists(_tokenId);\n        return tokenExists;\n    }\n\n    // buy the Cryptostate\n    function buyToken(uint256 _tokenId) public payable {\n        require(msg.sender != address(0), \"address must not be null\");\n        // token it must be exits\n        require(_exists(_tokenId), \"token must be exits on the contract\");\n        // get the owner of the token\n        address tokenOnwer = ownerOf(_tokenId);\n        // we can not buy over own token\n        require(msg.sender != tokenOnwer, \"you can not buy your own token\");\n        // getting token form the block chain\n        CryptoState memory cryptostate = allCryptostate[_tokenId];\n        // the price must be equal to or greater then\n        require(\n            msg.value >= cryptostate.price,\n            \"please Enter full price to buy\"\n        );\n        // it must be marked as for sale\n        require(cryptostate.forSale);\n\n        // tansfer the owner ship\n        _transfer(tokenOnwer, msg.sender, _tokenId);\n        // getting the current owner of the smart contract\n        address payable sendTo = cryptostate.currentOwner;\n        // sending the token worth to the owner of the  token\n        sendTo.transfer(msg.value);\n        //update  pervious owner\n        cryptostate.perviousOwner = cryptostate.currentOwner;\n        // update the current owner\n        cryptostate.currentOwner = payable(msg.sender);\n\n        // set and update the data of token\n        allCryptostate[_tokenId] = cryptostate;\n    }\n\n    // change the price oft the token\n    function changeTokenPrice(uint256 _tokenId, uint256 _newPrice)\n        public\n        payable\n    {\n        // address must not be empty\n        require(msg.sender != address(0));\n\n        require(msg.value >= listingPrice);\n\n        address tokenOnwer = ownerOf(_tokenId);\n\n        require(tokenOnwer == msg.sender);\n\n        CryptoState storage  cryptostate = allCryptostate[_tokenId];\n        //update the price\n        cryptostate.price = _newPrice;\n\n    }\n\n    function toggleForSale(uint256 _tokenId) public payable {\n        require(msg.sender != address(0));\n        // require caller of the function is not an empty address\n        // require that token should exist\n        require(_exists(_tokenId));\n        // get the token's owner\n        address tokenOwner = ownerOf(_tokenId);\n        // check that token's owner should be equal to the caller of the function\n        require(tokenOwner == msg.sender);\n        // get that token from all crypto boys mapping and create a memory of it defined as (struct => CryptoBoy)\n\n        CryptoState storage cryptostate = allCryptostate[_tokenId];\n\n        if (cryptostate.forSale) {\n            cryptostate.forSale = false;\n        } else {\n            cryptostate.forSale = true;\n        }\n        // set and update that token in the mapping\n        allCryptostate[_tokenId] = cryptostate;\n    }\n    // get all the sold proudct\n    // we can do for this at front end\n    // fetch my own NFT we can do for it on front-end\n \n    \n}",
  "sourcePath": "/home/akhilesh/Desktop/Hedera_india_cryptostate/src/contracts/CryptoState.sol",
  "compiler": {
    "name": "solc",
    "version": "0.8.0+commit.c7dfd78e.Emscripten.clang"
  },
  "schemaVersion": "3.4.3",
  "updatedAt": "2021-12-04T09:48:48.370Z",
  "networkType": "ethereum",
  "devdoc": {
    "kind": "dev",
    "methods": {
      "approve(address,uint256)": {
        "details": "See {IERC721-approve}."
      },
      "balanceOf(address)": {
        "details": "See {IERC721-balanceOf}."
      },
      "getApproved(uint256)": {
        "details": "See {IERC721-getApproved}."
      },
      "isApprovedForAll(address,address)": {
        "details": "See {IERC721-isApprovedForAll}."
      },
      "name()": {
        "details": "See {IERC721Metadata-name}."
      },
      "owner()": {
        "details": "Returns the address of the current owner."
      },
      "ownerOf(uint256)": {
        "details": "See {IERC721-ownerOf}."
      },
      "renounceOwnership()": {
        "details": "Leaves the contract without owner. It will not be possible to call `onlyOwner` functions anymore. Can only be called by the current owner. NOTE: Renouncing ownership will leave the contract without an owner, thereby removing any functionality that is only available to the owner."
      },
      "safeTransferFrom(address,address,uint256)": {
        "details": "See {IERC721-safeTransferFrom}."
      },
      "safeTransferFrom(address,address,uint256,bytes)": {
        "details": "See {IERC721-safeTransferFrom}."
      },
      "setApprovalForAll(address,bool)": {
        "details": "See {IERC721-setApprovalForAll}."
      },
      "supportsInterface(bytes4)": {
        "details": "See {IERC165-supportsInterface}."
      },
      "symbol()": {
        "details": "See {IERC721Metadata-symbol}."
      },
      "tokenURI(uint256)": {
        "details": "See {IERC721Metadata-tokenURI}."
      },
      "transferFrom(address,address,uint256)": {
        "details": "See {IERC721-transferFrom}."
      },
      "transferOwnership(address)": {
        "details": "Transfers ownership of the contract to a new account (`newOwner`). Can only be called by the current owner."
      }
    },
    "version": 1
  },
  "userdoc": {
    "kind": "user",
    "methods": {},
    "version": 1
  }
}